{
  "contractName": "TicTacToc",
  "abi": [
    {
      "constant": true,
      "inputs": [],
      "name": "player2",
      "outputs": [
        {
          "name": "",
          "type": "address"
        }
      ],
      "payable": false,
      "stateMutability": "view",
      "type": "function"
    },
    {
      "constant": true,
      "inputs": [],
      "name": "boardSize",
      "outputs": [
        {
          "name": "",
          "type": "uint256"
        }
      ],
      "payable": false,
      "stateMutability": "view",
      "type": "function"
    },
    {
      "constant": true,
      "inputs": [],
      "name": "player1",
      "outputs": [
        {
          "name": "",
          "type": "address"
        }
      ],
      "payable": false,
      "stateMutability": "view",
      "type": "function"
    },
    {
      "inputs": [],
      "payable": true,
      "stateMutability": "payable",
      "type": "constructor"
    },
    {
      "anonymous": false,
      "inputs": [
        {
          "indexed": false,
          "name": "player",
          "type": "address"
        }
      ],
      "name": "playerJoined",
      "type": "event"
    },
    {
      "anonymous": false,
      "inputs": [
        {
          "indexed": false,
          "name": "player",
          "type": "address"
        }
      ],
      "name": "playerRemind",
      "type": "event"
    },
    {
      "anonymous": false,
      "inputs": [
        {
          "indexed": false,
          "name": "player",
          "type": "address"
        }
      ],
      "name": "GameOverWinner",
      "type": "event"
    },
    {
      "anonymous": false,
      "inputs": [],
      "name": "GameOverDraw",
      "type": "event"
    },
    {
      "anonymous": false,
      "inputs": [
        {
          "indexed": false,
          "name": "player",
          "type": "address"
        },
        {
          "indexed": false,
          "name": "value",
          "type": "uint256"
        }
      ],
      "name": "GetMoney",
      "type": "event"
    },
    {
      "constant": false,
      "inputs": [],
      "name": "joinGame",
      "outputs": [],
      "payable": true,
      "stateMutability": "payable",
      "type": "function"
    },
    {
      "constant": false,
      "inputs": [
        {
          "name": "x",
          "type": "uint256"
        },
        {
          "name": "y",
          "type": "uint256"
        }
      ],
      "name": "setChess",
      "outputs": [],
      "payable": false,
      "stateMutability": "nonpayable",
      "type": "function"
    },
    {
      "constant": true,
      "inputs": [],
      "name": "getBoard",
      "outputs": [
        {
          "name": "",
          "type": "address[4][4]"
        }
      ],
      "payable": false,
      "stateMutability": "view",
      "type": "function"
    },
    {
      "constant": false,
      "inputs": [],
      "name": "withDrawMoneyWin",
      "outputs": [],
      "payable": false,
      "stateMutability": "nonpayable",
      "type": "function"
    },
    {
      "constant": false,
      "inputs": [],
      "name": "emergencyCashOut",
      "outputs": [],
      "payable": false,
      "stateMutability": "nonpayable",
      "type": "function"
    }
  ],
  "bytecode": "0x60806040526004600055610258600355670de0b6b3a76400003414151561002557600080fd5b33601760006101000a81548173ffffffffffffffffffffffffffffffffffffffff021916908373ffffffffffffffffffffffffffffffffffffffff160217905550601760009054906101000a900473ffffffffffffffffffffffffffffffffffffffff16601960006101000a81548173ffffffffffffffffffffffffffffffffffffffff021916908373ffffffffffffffffffffffffffffffffffffffff160217905550600354420160048190555061156a806100e36000396000f3fe60806040526004361061008e576000357c0100000000000000000000000000000000000000000000000000000000900463ffffffff1680633264a34b146100935780633fde48ca1461010957806359a5f12d14610120578063c51d69f414610177578063d30895e4146101a2578063d4f77b1c146101f9578063f31e3a7414610203578063f488a9c11461021a575b600080fd5b34801561009f57600080fd5b506100a861025f565b604051808260046000925b818410156100f95782846020020151600460200280838360005b838110156100e85780820151818401526020810190506100cd565b5050505090500192600101926100b3565b9250505091505060405180910390f35b34801561011557600080fd5b5061011e610318565b005b34801561012c57600080fd5b5061013561034d565b604051808273ffffffffffffffffffffffffffffffffffffffff1673ffffffffffffffffffffffffffffffffffffffff16815260200191505060405180910390f35b34801561018357600080fd5b5061018c610373565b6040518082815260200191505060405180910390f35b3480156101ae57600080fd5b506101b7610379565b604051808273ffffffffffffffffffffffffffffffffffffffff1673ffffffffffffffffffffffffffffffffffffffff16815260200191505060405180910390f35b61020161039f565b005b34801561020f57600080fd5b506102186106bd565b005b34801561022657600080fd5b5061025d6004803603604081101561023d57600080fd5b810190808035906020019092919080359060200190929190505050610941565b005b6102676114ec565b6007600480602002604051908101604052809291906000905b8282101561030f578382600402016004806020026040519081016040528092919082600480156102fb576020028201915b8160009054906101000a900473ffffffffffffffffffffffffffffffffffffffff1673ffffffffffffffffffffffffffffffffffffffff16815260200190600101908083116102b1575b505050505081526020019060010190610280565b50505050905090565b4260045410151561032857600080fd5b600260009054906101000a900460ff16151561034357600080fd5b61034b61109b565b565b601860009054906101000a900473ffffffffffffffffffffffffffffffffffffffff1681565b60005481565b601760009054906101000a900473ffffffffffffffffffffffffffffffffffffffff1681565b600073ffffffffffffffffffffffffffffffffffffffff16601860009054906101000a900473ffffffffffffffffffffffffffffffffffffffff1673ffffffffffffffffffffffffffffffffffffffff161415156103f957fe5b3373ffffffffffffffffffffffffffffffffffffffff16601760009054906101000a900473ffffffffffffffffffffffffffffffffffffffff1673ffffffffffffffffffffffffffffffffffffffff161415151561045357fe5b670de0b6b3a76400003414151561046957600080fd5b33601860006101000a81548173ffffffffffffffffffffffffffffffffffffffff021916908373ffffffffffffffffffffffffffffffffffffffff16021790555060035442016004819055507f6935774d817a9f1c60d03390720c9f71aff856ead1fb2243a8fc2e2456a49d8d601860009054906101000a900473ffffffffffffffffffffffffffffffffffffffff16604051808273ffffffffffffffffffffffffffffffffffffffff1673ffffffffffffffffffffffffffffffffffffffff16815260200191505060405180910390a16001600260006101000a81548160ff021916908315150217905550600060024381151561056357fe5b0614156105d257601760009054906101000a900473ffffffffffffffffffffffffffffffffffffffff16601960006101000a81548173ffffffffffffffffffffffffffffffffffffffff021916908373ffffffffffffffffffffffffffffffffffffffff160217905550610636565b601860009054906101000a900473ffffffffffffffffffffffffffffffffffffffff16601960006101000a81548173ffffffffffffffffffffffffffffffffffffffff021916908373ffffffffffffffffffffffffffffffffffffffff1602179055505b7fc820fa50e9ff946a1b16264ed03f4bcdb6a965e38eb58b9d4a68c4b81a207fe3601960009054906101000a900473ffffffffffffffffffffffffffffffffffffffff16604051808273ffffffffffffffffffffffffffffffffffffffff1673ffffffffffffffffffffffffffffffffffffffff16815260200191505060405180910390a1565b601760009054906101000a900473ffffffffffffffffffffffffffffffffffffffff1673ffffffffffffffffffffffffffffffffffffffff163373ffffffffffffffffffffffffffffffffffffffff16141561082b57600060055411151561072457600080fd5b601760009054906101000a900473ffffffffffffffffffffffffffffffffffffffff1673ffffffffffffffffffffffffffffffffffffffff166108fc6005549081150290604051600060405180830381858888f1935050505015801561078e573d6000803e3d6000fd5b507fbff8eab5804cdd61faed97cb0de933a7bcf7069e4c949daf56dd5105dbc98396601760009054906101000a900473ffffffffffffffffffffffffffffffffffffffff16600554604051808373ffffffffffffffffffffffffffffffffffffffff1673ffffffffffffffffffffffffffffffffffffffff1681526020018281526020019250505060405180910390a1600060058190555061093f565b600060065411151561083c57600080fd5b601860009054906101000a900473ffffffffffffffffffffffffffffffffffffffff1673ffffffffffffffffffffffffffffffffffffffff166108fc6006549081150290604051600060405180830381858888f193505050501580156108a6573d6000803e3d6000fd5b507fbff8eab5804cdd61faed97cb0de933a7bcf7069e4c949daf56dd5105dbc98396601860009054906101000a900473ffffffffffffffffffffffffffffffffffffffff16600654604051808373ffffffffffffffffffffffffffffffffffffffff1673ffffffffffffffffffffffffffffffffffffffff1681526020018281526020019250505060405180910390a160006006819055505b565b600073ffffffffffffffffffffffffffffffffffffffff1660078360048110151561096857fe5b600402018260048110151561097957fe5b0160009054906101000a900473ffffffffffffffffffffffffffffffffffffffff1673ffffffffffffffffffffffffffffffffffffffff161415156109bd57600080fd5b426004541115156109cd57600080fd5b600054821015156109da57fe5b600054811015156109e757fe5b600260009054906101000a900460ff1615156109ff57fe5b601960009054906101000a900473ffffffffffffffffffffffffffffffffffffffff1673ffffffffffffffffffffffffffffffffffffffff163373ffffffffffffffffffffffffffffffffffffffff16141515610a5b57600080fd5b33600783600481101515610a6b57fe5b6004020182600481101515610a7c57fe5b0160006101000a81548173ffffffffffffffffffffffffffffffffffffffff021916908373ffffffffffffffffffffffffffffffffffffffff160217905550600160008154809291906001019190505550600354420160048190555060008090505b600054811015610bd057601960009054906101000a900473ffffffffffffffffffffffffffffffffffffffff1673ffffffffffffffffffffffffffffffffffffffff16600782600481101515610b3057fe5b6004020183600481101515610b4157fe5b0160009054906101000a900473ffffffffffffffffffffffffffffffffffffffff1673ffffffffffffffffffffffffffffffffffffffff16141515610b8557610bd0565b600160005403811415610bc357610bbd601960009054906101000a900473ffffffffffffffffffffffffffffffffffffffff1661130d565b50611097565b8080600101915050610ade565b5060008090505b600054811015610cc957601960009054906101000a900473ffffffffffffffffffffffffffffffffffffffff1673ffffffffffffffffffffffffffffffffffffffff16600784600481101515610c2957fe5b6004020182600481101515610c3a57fe5b0160009054906101000a900473ffffffffffffffffffffffffffffffffffffffff1673ffffffffffffffffffffffffffffffffffffffff16141515610c7e57610cc9565b600160005403811415610cbc57610cb6601960009054906101000a900473ffffffffffffffffffffffffffffffffffffffff1661130d565b50611097565b8080600101915050610bd7565b5080821415610da15760008090505b600054811015610d9f57601960009054906101000a900473ffffffffffffffffffffffffffffffffffffffff1673ffffffffffffffffffffffffffffffffffffffff16600782600481101515610d2a57fe5b6004020182600481101515610d3b57fe5b0160009054906101000a900473ffffffffffffffffffffffffffffffffffffffff1673ffffffffffffffffffffffffffffffffffffffff16141515610d7f57610d9f565b600160005403811415610d925750611097565b8080600101915050610cd8565b505b6001600054038183011415610eb15760008090505b600054811015610eaf57601960009054906101000a900473ffffffffffffffffffffffffffffffffffffffff1673ffffffffffffffffffffffffffffffffffffffff16600782600481101515610e0857fe5b600402018260016000540303600481101515610e2057fe5b0160009054906101000a900473ffffffffffffffffffffffffffffffffffffffff1673ffffffffffffffffffffffffffffffffffffffff16141515610e6457610eaf565b600160005403811415610ea257610e9c601960009054906101000a900473ffffffffffffffffffffffffffffffffffffffff1661130d565b50611097565b8080600101915050610db6565b505b60026000540a6001541415610ecd57610ec861109b565b611097565b601760009054906101000a900473ffffffffffffffffffffffffffffffffffffffff1673ffffffffffffffffffffffffffffffffffffffff16601960009054906101000a900473ffffffffffffffffffffffffffffffffffffffff1673ffffffffffffffffffffffffffffffffffffffff161415610fad57601860009054906101000a900473ffffffffffffffffffffffffffffffffffffffff16601960006101000a81548173ffffffffffffffffffffffffffffffffffffffff021916908373ffffffffffffffffffffffffffffffffffffffff160217905550611011565b601760009054906101000a900473ffffffffffffffffffffffffffffffffffffffff16601960006101000a81548173ffffffffffffffffffffffffffffffffffffffff021916908373ffffffffffffffffffffffffffffffffffffffff1602179055505b7fc820fa50e9ff946a1b16264ed03f4bcdb6a965e38eb58b9d4a68c4b81a207fe3601960009054906101000a900473ffffffffffffffffffffffffffffffffffffffff16604051808273ffffffffffffffffffffffffffffffffffffffff1673ffffffffffffffffffffffffffffffffffffffff16815260200191505060405180910390a15b5050565b6000600260006101000a81548160ff0219169083151502179055507f0f44a4495ec61d7b2c658ba51bbe543e466ad551982420387346c01e7cd6ada260405160405180910390a1600060023073ffffffffffffffffffffffffffffffffffffffff163181151561110757fe5b049050601760009054906101000a900473ffffffffffffffffffffffffffffffffffffffff1673ffffffffffffffffffffffffffffffffffffffff166108fc829081150290604051600060405180830381858888f19350505050151561117c578060056000828254019250508190555061120a565b7fbff8eab5804cdd61faed97cb0de933a7bcf7069e4c949daf56dd5105dbc98396601760009054906101000a900473ffffffffffffffffffffffffffffffffffffffff1682604051808373ffffffffffffffffffffffffffffffffffffffff1673ffffffffffffffffffffffffffffffffffffffff1681526020018281526020019250505060405180910390a15b601860009054906101000a900473ffffffffffffffffffffffffffffffffffffffff1673ffffffffffffffffffffffffffffffffffffffff166108fc829081150290604051600060405180830381858888f19350505050151561127c578060066000828254019250508190555061130a565b7fbff8eab5804cdd61faed97cb0de933a7bcf7069e4c949daf56dd5105dbc98396601860009054906101000a900473ffffffffffffffffffffffffffffffffffffffff1682604051808373ffffffffffffffffffffffffffffffffffffffff1673ffffffffffffffffffffffffffffffffffffffff1681526020018281526020019250505060405180910390a15b50565b6000600260006101000a81548160ff0219169083151502179055507ff593b6d94a7a469c71839f820ffc995155b57ee9d3fcd0a4e31ae2707975ae5b81604051808273ffffffffffffffffffffffffffffffffffffffff1673ffffffffffffffffffffffffffffffffffffffff16815260200191505060405180910390a160003073ffffffffffffffffffffffffffffffffffffffff163190508173ffffffffffffffffffffffffffffffffffffffff166108fc3073ffffffffffffffffffffffffffffffffffffffff16319081150290604051600060405180830381858888f19350505050151561147857601760009054906101000a900473ffffffffffffffffffffffffffffffffffffffff1673ffffffffffffffffffffffffffffffffffffffff168273ffffffffffffffffffffffffffffffffffffffff161415611472573073ffffffffffffffffffffffffffffffffffffffff1631600581905550611473565b5b6114e8565b7fbff8eab5804cdd61faed97cb0de933a7bcf7069e4c949daf56dd5105dbc983968282604051808373ffffffffffffffffffffffffffffffffffffffff1673ffffffffffffffffffffffffffffffffffffffff1681526020018281526020019250505060405180910390a1600090505b5050565b610200604051908101604052806004905b61150561151b565b8152602001906001900390816114fd5790505090565b60806040519081016040528060049060208202803883398082019150509050509056fea165627a7a723058206cf37eecf443d100cb7bb3c0f692c662da552469b74b3f8243c07204e8d071110029",
  "source": "//solium-disable linebreak-style\r\npragma solidity ^0.5.0;\r\n//有两个玩家，一个创建合约一个加入合约\r\n\r\n/***\r\n12.21更新\r\n在用到truffle的时候发现必须使用0.5.0版本，更改如下：\r\n在所有事件前加入emit关键字，防止DAO\r\n在所有需要支付的地址上加入了payable来让玩家的地址可以被支付\r\n将this.balance改为了address(this).balance\r\n用以太币钱包部署的应该就是旧版本了，这个版本控制真的是闹心\r\n */\r\ncontract TicTacToc{\r\n    uint constant GameValue = 1 ether;\r\n    uint public boardSize = 4;\r\n    uint movesCounter;\r\n    bool gameActive;\r\n    uint timeToMove = 10 minutes;\r\n    uint avaliableGameTime;\r\n    uint getMoneyPlayer1;\r\n    uint getMoneyPlayer2;\r\n\r\n    address[4][4] board; //实现在特定的位置下棋\r\n    address payable public player1;\r\n    address payable public player2;\r\n    address payable activedPlayer;// 正在下棋的玩者\r\n    \r\n\r\n\r\n    event playerJoined(address player);\r\n    event playerRemind(address player); // 提醒谁应该下棋\r\n    event GameOverWinner(address player);\r\n    event GameOverDraw();\r\n    event GetMoney(address player, uint value);\r\n\r\n\r\n    constructor() payable public {\r\n        //第一个玩者构建合约\r\n        require(msg.value == GameValue);\r\n        player1 = msg.sender;\r\n        activedPlayer = player1;\r\n        avaliableGameTime = now + timeToMove;\r\n    }\r\n\r\n    function joinGame() public payable {\r\n        //第二个玩者加入游戏\r\n        assert(player2 == address(0));// 防止重复加入\r\n        assert(player1 != msg.sender);\r\n        require(msg.value == GameValue);\r\n        player2 = msg.sender;\r\n        avaliableGameTime = now + timeToMove;\r\n        emit playerJoined(player2);\r\n        gameActive = true;\r\n        if(block.number%2 == 0) {\r\n            activedPlayer = player1;\r\n        } else {\r\n            activedPlayer = player2;\r\n        }\r\n        emit playerRemind(activedPlayer);\r\n    }\r\n\r\n    //后期优化为setChess\r\n    function setChess(uint x, uint y) public {\r\n        //在棋盘的位置标注是谁下的\r\n        require(board[x][y] == address(0));\r\n        require(avaliableGameTime > now);\r\n        assert(x < boardSize);\r\n        assert(y < boardSize);\r\n        assert(gameActive);\r\n        //playerRemind(activedPlayer);\r\n        require(msg.sender == activedPlayer);\r\n        board[x][y] = msg.sender;\r\n        movesCounter++;\r\n        avaliableGameTime = now + timeToMove;\r\n        //决定行是否胜利 col\r\n        for (uint index = 0; index < boardSize; index++) {\r\n            if(board[index][y] != activedPlayer) {\r\n                break;\r\n            }\r\n            //win\r\n            if(index == boardSize - 1){\r\n                //winner\r\n                setWinner(activedPlayer);\r\n                return;\r\n            }\r\n        }\r\n        //决定列是否胜利 row\r\n        for (uint index = 0; index < boardSize; index++){\r\n            if(board[x][index] != activedPlayer){\r\n                break;\r\n            }\r\n            //win\r\n            if(index == boardSize - 1){\r\n                //winner\r\n                setWinner(activedPlayer);\r\n                return;\r\n            }\r\n        }\r\n        //对角线 diagonale\r\n        if(x == y) {\r\n            for(uint index = 0; index < boardSize; index++) {\r\n                if(board[index][index] != activedPlayer) {\r\n                    break;\r\n                }\r\n                //win\r\n                if(index == boardSize - 1){\r\n                    //winner\r\n                    return;\r\n                }\r\n            }\r\n        }\r\n        //antidiagonale\r\n        if((x + y) == boardSize - 1){\r\n            for(uint index = 0; index < boardSize; index++){\r\n                if(board[index][(boardSize-1) - index] != activedPlayer){\r\n                    break;\r\n                }\r\n                //win\r\n                if(index == boardSize - 1) {\r\n                    //winner\r\n                    setWinner(activedPlayer);\r\n                    return;\r\n                }\r\n            }\r\n        }\r\n\r\n        if(movesCounter == boardSize**2){\r\n            //draw\r\n            setDraw();\r\n            return;\r\n        }\r\n        //切换下棋的玩家\r\n        if(activedPlayer == player1) {\r\n            activedPlayer = player2;\r\n        } else {\r\n            activedPlayer = player1;\r\n        }\r\n        emit playerRemind(activedPlayer);\r\n    }\r\n\r\n    function getBoard() public view returns(address[4][4] memory) {\r\n        //返回当前的棋盘\r\n        return board;\r\n    }\r\n\r\n    //在0.5.0更新之后必须要给地址加上payable才能调用send啥的，我佛了\r\n    function setWinner(address payable player) private {\r\n        gameActive = false;\r\n        //emit event\r\n        emit GameOverWinner(player);\r\n        //pay\r\n        //use send because if we use transfer the game will roll back to the time last set cheek\r\n        uint balanceNow = address(this).balance;\r\n        if(!player.send(address(this).balance)) {\r\n            if(player == player1) {\r\n                getMoneyPlayer1 = address(this).balance;\r\n            } else {\r\n                getMoneyPlayer2 == address(this).balance;\r\n            }\r\n        } else {\r\n            emit GetMoney(player, balanceNow);\r\n            balanceNow = 0;\r\n        }\r\n    }\r\n    //the situation that draw（平局）\r\n    function setDraw() private {\r\n        gameActive = false;\r\n        emit GameOverDraw();\r\n        uint moneyWithDraw = address(this).balance/2;\r\n        if(!player1.send(moneyWithDraw)) {\r\n            getMoneyPlayer1 += moneyWithDraw;\r\n        } else {\r\n            emit GetMoney(player1, moneyWithDraw);\r\n        }\r\n        if(!player2.send(moneyWithDraw)) {\r\n            getMoneyPlayer2 += moneyWithDraw;\r\n        } else {\r\n            emit GetMoney(player2, moneyWithDraw);\r\n        }\r\n    }\r\n    //if something happen you can use this to get your money later\r\n    function withDrawMoneyWin() public {\r\n        if(msg.sender == player1) {\r\n            require(getMoneyPlayer1 > 0);\r\n            player1.transfer(getMoneyPlayer1);\r\n            emit GetMoney(player1,getMoneyPlayer1);\r\n            getMoneyPlayer1 = 0;\r\n        } else {\r\n            require(getMoneyPlayer2 > 0);\r\n            player2.transfer(getMoneyPlayer2);\r\n            emit GetMoney(player2, getMoneyPlayer2);\r\n            getMoneyPlayer2 = 0;\r\n        }\r\n    }\r\n\r\n    //if someone out the game use it to return the money\r\n    function emergencyCashOut() public {\r\n        require(avaliableGameTime < now);\r\n        require(gameActive);\r\n        setDraw();\r\n    }\r\n}",
  "sourcePath": "C:/Users/UNSC/truffle/contracts/TicTacToc.sol",
  "compiler": {
    "name": "solc",
    "version": "0.5.0+commit.1d4f565a.Emscripten.clang"
  },
  "schemaVersion": "3.0.0",
  "updatedAt": "2018-12-24T09:47:33.032Z",
  "devdoc": {
    "methods": {}
  },
  "userdoc": {
    "methods": {},
    "notice": "*\r 12.21更新\r 在用到truffle的时候发现必须使用0.5.0版本，更改如下：\r 在所有事件前加入emit关键字，防止DAO\r 在所有需要支付的地址上加入了payable来让玩家的地址可以被支付\r 将this.balance改为了address(this).balance\r 用以太币钱包部署的应该就是旧版本了，这个版本控制真的是闹心\r"
  }
}